{
  "contractName": "ToDo",
  "abi": [
    {
      "constant": true,
      "inputs": [
        {
          "name": "",
          "type": "uint256"
        }
      ],
      "name": "tasks",
      "outputs": [
        {
          "name": "id",
          "type": "uint256"
        },
        {
          "name": "name",
          "type": "string"
        },
        {
          "name": "category",
          "type": "string"
        }
      ],
      "payable": false,
      "stateMutability": "view",
      "type": "function"
    },
    {
      "constant": true,
      "inputs": [],
      "name": "tasksCount",
      "outputs": [
        {
          "name": "",
          "type": "uint256"
        }
      ],
      "payable": false,
      "stateMutability": "view",
      "type": "function"
    },
    {
      "inputs": [],
      "payable": false,
      "stateMutability": "nonpayable",
      "type": "constructor"
    },
    {
      "anonymous": false,
      "inputs": [
        {
          "indexed": true,
          "name": "_taskId",
          "type": "uint256"
        }
      ],
      "name": "addTaskEvent",
      "type": "event"
    },
    {
      "constant": false,
      "inputs": [
        {
          "name": "_name",
          "type": "string"
        },
        {
          "name": "_category",
          "type": "string"
        }
      ],
      "name": "addTask",
      "outputs": [],
      "payable": false,
      "stateMutability": "nonpayable",
      "type": "function"
    }
  ],
  "bytecode": "0x608060405234801561001057600080fd5b506100946040805190810160405280600681526020017f5461736b203100000000000000000000000000000000000000000000000000008152506040805190810160405280600481526020017f576f726b0000000000000000000000000000000000000000000000000000000081525061011c640100000000026401000000009004565b6101176040805190810160405280600681526020017f5461736b203200000000000000000000000000000000000000000000000000008152506040805190810160405280600881526020017f506572736f6e616c00000000000000000000000000000000000000000000000081525061011c640100000000026401000000009004565b61027f565b60016000815480929190600101919050555060606040519081016040528060015481526020018381526020018281525060008060015481526020019081526020016000206000820151816000015560208201518160010190805190602001906101869291906101da565b5060408201518160020190805190602001906101a39291906101da565b509050506001547f6274973e6ca824a58b27dc4a96020676adff66d51d7a2a3ebc14bd467aafc80060405160405180910390a25050565b828054600181600116156101000203166002900490600052602060002090601f016020900481019282601f1061021b57805160ff1916838001178555610249565b82800160010185558215610249579182015b8281111561024857825182559160200191906001019061022d565b5b509050610256919061025a565b5090565b61027c91905b80821115610278576000816000905550600101610260565b5090565b90565b61053e8061028e6000396000f300608060405260043610610057576000357c0100000000000000000000000000000000000000000000000000000000900463ffffffff1680638d9776721461005c578063b37b100014610175578063bb6a0f0714610224575b600080fd5b34801561006857600080fd5b506100876004803603810190808035906020019092919050505061024f565b604051808481526020018060200180602001838103835285818151815260200191508051906020019080838360005b838110156100d15780820151818401526020810190506100b6565b50505050905090810190601f1680156100fe5780820380516001836020036101000a031916815260200191505b50838103825284818151815260200191508051906020019080838360005b8381101561013757808201518184015260208101905061011c565b50505050905090810190601f1680156101645780820380516001836020036101000a031916815260200191505b509550505050505060405180910390f35b34801561018157600080fd5b50610222600480360381019080803590602001908201803590602001908080601f0160208091040260200160405190810160405280939291908181526020018383808284378201915050505050509192919290803590602001908201803590602001908080601f01602080910402602001604051908101604052809392919081815260200183838082843782019150505050505091929192905050506103a9565b005b34801561023057600080fd5b50610239610467565b6040518082815260200191505060405180910390f35b6000602052806000526040600020600091509050806000015490806001018054600181600116156101000203166002900480601f0160208091040260200160405190810160405280929190818152602001828054600181600116156101000203166002900480156103015780601f106102d657610100808354040283529160200191610301565b820191906000526020600020905b8154815290600101906020018083116102e457829003601f168201915b505050505090806002018054600181600116156101000203166002900480601f01602080910402602001604051908101604052809291908181526020018280546001816001161561010002031660029004801561039f5780601f106103745761010080835404028352916020019161039f565b820191906000526020600020905b81548152906001019060200180831161038257829003601f168201915b5050505050905083565b600160008154809291906001019190505550606060405190810160405280600154815260200183815260200182815250600080600154815260200190815260200160002060008201518160000155602082015181600101908051906020019061041392919061046d565b50604082015181600201908051906020019061043092919061046d565b509050506001547f6274973e6ca824a58b27dc4a96020676adff66d51d7a2a3ebc14bd467aafc80060405160405180910390a25050565b60015481565b828054600181600116156101000203166002900490600052602060002090601f016020900481019282601f106104ae57805160ff19168380011785556104dc565b828001600101855582156104dc579182015b828111156104db5782518255916020019190600101906104c0565b5b5090506104e991906104ed565b5090565b61050f91905b8082111561050b5760008160009055506001016104f3565b5090565b905600a165627a7a7230582035911fcbf0da580ae170ef0edf2c8f4ecb91de857493a7b96405b430a14d6b590029",
  "source": "pragma solidity ^0.4.2;\n\ncontract ToDo {\n\tstruct Task {\n\t\tuint id;\n\t\tstring name;\n\t\tstring category;\n\t}\n\n\tmapping(uint => Task) public tasks;\n\tuint public tasksCount;\n\n\tevent addTaskEvent(\n\t\tuint indexed _taskId\n\t);\n\n\tfunction ToDo () public {\n\t\taddTask(\"Task 1\", \"Work\");\n\t\taddTask(\"Task 2\", \"Personal\");\n\t}\n\n\tfunction addTask(string _name, string _category) public {\n\t\ttasksCount++;\n\t\ttasks[tasksCount] = Task(tasksCount, _name, _category);\n\n\t\taddTaskEvent(tasksCount);\n\t}\n}",
  "sourcePath": "/Users/liuziyi/Documents/tutorials/dapps/truffle/ipfs/todo/contracts/ToDo.sol",
  "compiler": {
    "name": "solc",
    "version": "0.4.23+commit.124ca40d.Emscripten.clang"
  },
  "schemaVersion": "2.0.0",
  "updatedAt": "2018-05-24T03:57:30.452Z"
}